:020000040800F2
:1000000000800120191B0008610700086307000831
:10001000650700086707000869070008000000007E
:100020000000000000000000000000006B07000856
:100030006D070008000000006F0700087107000846
:10004000691B0008691B0008691B0008691B000880
:10005000691B0008691B0008691B0008691B000870
:10006000691B0008691B0008691B0008691B000860
:10007000691B0008691B0008691B0008691B000850
:10008000691B0008691B0008691B000800000000CC
:10009000000000000000000000000000691B0008D4
:1000A000691B00087507000881070008691B000824
:1000B000691B0008691B0008691B0008691B000810
:1000C000691B0008691B0008691B0008691B000800
:1000D000691B0008691B00088D070008000000006C
:1000E00099070008691B0008691B00080000000050
:1000F000000000000000000000000000691B000874
:1001000000000000691B0008691B0008691B00084B
:1001100000000000000000000000000000000000DF
:10012000691B0008691B0008691B0008691B00089F
:10013000691B000800000000000000000000000033
:10014000000000000000000000000000691B000823
:10015000691B0008691B0008691B0008691B00086F
:10016000691B0008691B0008000000000000000077
:10017000000000000000000000000000000000007F
:1001800000000000691B00080000000000000000E3
:04019000691B0008DF
:1001940010B5054C237833B9044B13B10448AFF3BD
:1001A40000800123237010BD0C000020000000001B
:1001B400D41B000808B5034B1BB103490348AFF334
:1001C400008008BD0000000010000020D41B0008BF
:1001D400034613F8012B002AFBD1181A0138704783
:1001E40053B94AB9002908BF00281CBF4FF0FF319A
:1001F4004FF0FF3000F070B9ADF1080C6DE904CE9A
:1002040000F006F8DDF804E0DDE9022304B07047ED
:100214002DE9F047089E0D4604460F46002B4AD1AF
:100224008A42944665D9B2FA82F343B102FA03FCD6
:10023400C3F120029F4020FA02F217439C404FEA88
:100244001C4E1FFA8CF5B7FBFEF1220C0EFB117746
:1002540042EA074201FB05F090420AD91CEB020274
:1002640001F1FF3780F01C81904240F2198102397C
:100274006244121AA4B2B2FBFEF00EFB102244EA4E
:10028400024400FB05F5A5420AD91CEB040400F165
:10029400FF3280F00781A54240F2048164440238B1
:1002A40040EA0140641B00211EB1DC400023C6E982
:1002B4000043BDE8F0878B4208D9002E00F0ED80A2
:1002C4000021C6E900050846BDE8F087B3FA83F1CA
:1002D400002949D1AB4202D3824200F2F880841A49
:1002E40065EB030201201746002EE2D0C6E9004761
:1002F400DFE702B9FFDEB2FA82F3002B40F0908010
:100304008A1A4FEA1C471FFA8CFE0121B2FBF7F54B
:1003140007FB1520220C42EA00420EFB05F0904236
:1003240008D91CEB020205F1FF3802D2904200F218
:10033400CB804546121AA4B2B2FBF7F007FB102299
:1003440044EA02440EFB00FEA64508D91CEB040453
:1003540000F1FF3202D2A64500F2BB801046A4EBA6
:100364000E0440EA05409FE7C1F120078B4022FAC2
:1003740007FC4CEA030C05FA01F420FA07F3FD40EC
:100384004FEA1C492343B5FBF9F81FFA8CFE09FB1D
:1003940018551C0C44EA054408FB0EF5A54202FA64
:1003A40001F200FA01F00BD91CEB040408F1FF3A46
:1003B40080F08880A54240F28580A8F10208644458
:1003C400641B9DB2B4FBF9F309FB134445EA0444EE
:1003D40003FB0EFEA64508D91CEB040403F1FF350C
:1003E4006CD2A6456AD9023B644443EA0843A3FBA2
:1003F4000295A4EB0E04AC42C846AE4656D353D085
:1004040056B1B0EB080264EB0E0404FA07F7CA40D5
:10041400CC401743C6E9007418460021BDE8F087B4
:10042400C3F1200102FA03FC20FA01F225FA01F1DA
:100434009D402A434FEA1C471FFA8CFEB1FBF7F09C
:1004440007FB1015110C41EA054100FB0EF58D4226
:1004540004FA03F408D91CEB010100F1FF382FD290
:100464008D422DD902386144491B92B2B1FBF7F594
:1004740007FB151142EA014205FB0EF1914208D92E
:100484001CEB020205F1FF3816D2914214D9023D49
:100494006244521A45EA004138E73146304608E7DB
:1004A4003946E6E61046FBE64845A9D2B9EB020810
:1004B40065EB0C0E013BA3E74546EAE72B4694E7C0
:1004C4004046D1E7D0467BE7023D624432E7084626
:1004D4000AE76444023842E7704700BF30B589B088
:1004E4001422002103A801F03EFB00241D4B0094BC
:1004F4001A6B1D4D42F004021A631A6B02F00402D7
:100504000092009A01941A6B42F001021A631A6B6A
:1005140002F001020192019A02941A6B42F0020263
:100524001A631B6B03F00203029322462846202120
:10053400029B00F0FBFB4FF400524FF4041303A999
:100544000A480594CDE9032300F028FB0123202168
:10055400CDE90313284603A9CDE9054400F01EFBA9
:1005640009B030BD003802400000024000080240DB
:10057400B0F5005F10B50FD10849094801F020FB20
:100584000748FFF725FEBDE8104082B2044905483C
:1005940041F2883301F0BCB810BD00BFEC1B000869
:1005A40028000020B80400200268044B9A4203D1BA
:1005B4000348202100F0BFBB704700BF0044014046
:1005C4000000024010B594B01422002109A801F0E3
:1005D400CAFA1422002103A801F0C5FA1E4B002216
:1005E4000192196C41F0805119641B6C1B4903F092
:1005F40080530193019B02920B6823F4404343F41C
:1006040000430B600B6803F440430293029B0121F7
:1006140010234FF4A870CDE90B1310930423CDE9F4
:1006240011030224072308A8CDE90E42089413936A
:1006340000F096FB00B1FEE70F23CDE903344FF43D
:100644008053CDE906300590214603A800F062FDF1
:1006540000B1FEE714B010BD003802400070004045
:1006640038B500F0A3F9FFF7ADFFFFF737FF00F04F
:1006740029F900F0B9F800F0D1F80022114626203B
:1006840000F0E6F9262000F015FA00221146282091
:1006940000F0DEF9282000F00DFA1A491A481B4D23
:1006A40001F08EFA1848FFF793FD174982B241F220
:1006B4008833174801F02CF81424012220212846FD
:1006C40000F034FB1E2000F09DF900222021284672
:1006D40000F02CFB1E2000F095F9013CEDD10D48F3
:1006E40000F0D2FD0C49084801F06AFA0648FFF709
:1006F4006FFD054982B241F28833054801F008F8DC
:10070400FEE700BF011C0008280000200000024092
:10071400B8040020280400207E1C0008FEE7000026
:1007240082B00D4B002100915A6C42F480425A640D
:100734005A6C02F480420092009A01911A6C42F0C1
:1007440080521A641B6C03F080530193019B0720B1
:1007540002B000F06BB900BF003802407047FEE7FA
:10076400FEE7FEE7FEE770477047704700F038B9D0
:10077400014800F0BFBD00BF28040020014800F07C
:10078400B9BD00BF70040020014801F07DB800BF6E
:10079400B80400204FF4005000F0D6BA0F49D1F845
:1007A400883043F47003C1F888300D4B1A68002078
:1007B40042F001021A6098601A6822F0847222F4EE
:1007C40080321A60074A5A601A6822F480221A603A
:1007D400D8604FF000638B60704700BF00ED00E00D
:1007E40000380240103000240A480B4A08B541F290
:1007F4008733C0E90023002341F63F72C0E9023287
:100804000361836100F066FE18B1BDE80840FFF79C
:1008140085BF08BD28040020004401400A480B4A53
:1008240008B5C723C0E90023002340F2CF72C0E912
:1008340002320361836100F04DFE18B1BDE8084047
:10084400FFF76CBF08BD00BF7004002000480140E2
:1008540007B50368184A934215D1184B0022009239
:10086400596C41F4003159645B6C03F40033009318
:1008740019201146009B00F0EBF8192003B05DF835
:1008840004EB00F017B90E4A934211D10B4B00222E
:100894000192596C41F4802159645B6C03F4802308
:1008A40001931A201146019B00F0D2F81A20E5E7C3
:1008B40003B05DF804FB00BF00440140003802406F
:1008C400004801400B480C4A08B54FF46123C0E9C5
:1008D400002300230C22C0E90233C0E9052303618D
:1008E400C36100F0E7FE18B1BDE80840FFF716BF8A
:1008F40008BD00BFB80400200044004010B5044601
:1009040088B01422002103A801F02DF92268134BAA
:100914009A4220D103F5FA33002101911A6C104850
:1009240042F400321A641A6C02F400320192019A01
:1009340002911A6B42F001021A631B6B03F001036C
:100944000293029B0C220223CDE9032303A907236C
:10095400079300F023F908B010BD00BF0044004025
:100964000000024038B50E4B1A784FF47A73B3FB8B
:10097400F2F30C4A05461068B0FBF3F000F0A8F857
:10098400044658B90F2D09D8024629464FF0FF30C6
:1009940000F05EF8044B20461D6038BD0120FCE7E2
:1009A40004000020000000200800002008B50B4BC4
:1009B4001A6842F400721A601A6842F480621A607B
:1009C4001A6842F480721A60032000F02FF80020A5
:1009D400FFF7C8FFFFF7A4FE002008BD003C02405B
:1009E400034A044B11681B780B441360704700BF23
:1009F400FC04002004000020014B1868704700BF6D
:100A0400FC04002038B50446FFF7F6FF631C1CBF46
:100A1400054B1B78054618BFE418FFF7EDFF431B91
:100A2400A342FAD338BD00BF040000200749CA68B6
:100A340022F4E0620302120403F4E063120C134391
:100A440043F0BF6343F40033CB60704700ED00E034
:100A5400164B30B5DC68C4F30224C4F10703251D2A
:100A6400042B28BF0423062D4FF0FF358CBF033C15
:100A7400002405FA03F321EA0303A54022EA050250
:100A8400A340002843EA0203ACBF00F16040084AD7
:100A94004FEA0313B8BF00F00F00DBB2AABF00F5A2
:100AA4006140135480F8003330BD00BF00ED00E016
:100AB40014ED00E0002807DB4109044A00F01F00A0
:100AC4000123834042F82130704700BF00E100E079
:100AD4000138B0F1807F0BD24FF0E023054A586112
:100AE400F02182F823100020072298611A617047D0
:100AF4000120704700ED00E070B50446866DFFF7F5
:100B04007BFF94F83530022B054606D080236365BD
:100B14000120002384F8343070BD23681A6822F061
:100B240016021A605A6922F080025A61226C0AB9CC
:100B3400A26C1AB11A6822F008021A601A6822F02C
:100B440001021A6023681B6813F0010308D1E16DE8
:100B54003F228A40B260012284F835201846D8E743
:100B6400FFF74AFF401B0528ECD9202303206365C7
:100B740084F83500CDE790F83530022B03D080237C
:100B84004365012070470268052380F835301368F7
:100B940023F0010313600020704700002DE9F74F94
:100BA400DFF884915E4A00230D6801249C4004EA26
:100BB400050CAC4340F0A5804D6805F003044FEAF2
:100BC40043080326671E06FA08F6012F6FEA060695
:100BD40034D8876807EA060ECF6807FA08F747EAA9
:100BE4000E078760476827EA0C0EC5F300179F407D
:100BF40047EA0E074760C76807EA060E8F6807FAD8
:100C040008F747EA0E07022CC76019D14FEAD30A46
:100C140000EB8A0A03F0070BDAF820704FEA8B0B1B
:100C24004FF00F0E0EFA0BFE27EA0E0E0F6907FAAD
:100C34000BF747EA0E07CAF8207001E0032CDAD15B
:100C4400076804FA08F437403C4315F4403F046055
:100C540057D04FF0000ACDF804A0D9F84460314CC5
:100C640046F48046C9F84460D9F8446006F48046E6
:100C74000196019E23F0030606F1804606F59C3694
:100C840003F0030ED6F808804FEA8E0E0F2707FAFA
:100C94000EF7A04228EA07073AD004F58064A04280
:100CA40038D004F58064A04236D004F58064A042B4
:100CB40034D004F58064A0420CBF0424072404FA51
:100CC4000EF43C43B46094686FEA0C06EF0254BF20
:100CD40034404CEA04049460D468AF0254BF3440F6
:100CE4004CEA0404D4605468AF0354BF34404CEA63
:100CF400040454601468ED0354BF34404CEA040403
:100D040014600133102B7FF44FAF03B0BDE8F08FB4
:100D14005446D4E70124D2E70224D0E70324CEE7E3
:100D2400003C014000000240003802400AB18161E9
:100D340070470904FBE7436901EA030221EA03015E
:100D440041EA024181617047044A5169014208B590
:100D540002D05061FFF70CFC08BD00BF003C01400D
:100D64002DE9F341044640B30368DD0710D423683A
:100D740098075BD423681A0700F19D8023685B07FA
:100D840000F1BD80A069002840F0248100202CE0FF
:100D94008D4B9A6802F00C02042A07D09A6802F07C
:100DA4000C02082A0BD15B68590208D5864B1B68D4
:100DB4009A03DCD56368002BD9D1012015E0636860
:100DC400814DB3F5803F13D12B6843F480332B60FE
:100DD400FFF712FE7C4E054633689B03C7D4FFF72A
:100DE4000BFE401B6428F7D9032002B0BDE8F08154
:100DF400B3F5A02F04D12B6843F480232B60E3E7E1
:100E04002A6822F480322A602A6822F480222A6026
:100E1400002BDDD1FFF7F0FD06462B689F03A6D516
:100E2400FFF7EAFD801B6428F7D9DDE7664B9A6873
:100E340012F00C0F07D09A6802F00C02082A11D1A4
:100E44005B685E020ED4604A13689D0702D5E368AE
:100E5400012BB2D11368216923F0F80343EAC103DB
:100E6400136087E7E268594BB2B101221A60FFF7B9
:100E7400C3FD554D06462B68980707D52B68226994
:100E840023F0F80343EAC2032B6073E7FFF7B4FDD2
:100E9400801B0228EFD9A7E71A60FFF7ADFD4A4E81
:100EA4000546336899077FF565AFFFF7A5FD401B3D
:100EB4000228F6D998E76269444B82B10122C3F84B
:100EC400802EFFF799FD404E0546736F9F073FF54F
:100ED40055AFFFF791FD401B0228F6D984E7C3F80C
:100EE400802EFFF789FD384E0546736F98077FF50E
:100EF40045AFFFF781FD401B0228F6D974E7324B5A
:100F04001A6C12F0805228D101921A6C42F080526D
:100F14001A641B6C03F080530193019B01272C4D31
:100F24002B68D9051BD5A368274D012B27D12B6F1F
:100F340043F001032B67FFF75FFD234E054641F2A3
:100F44008838336F9B0739D5002F3FF41BAF1E4AF7
:100F5400136C23F08053136414E70027DFE72B6836
:100F640043F480732B60FFF747FD06462B68DA05D0
:100F7400D9D4FFF741FD801B0228F7D934E7052BAC
:100F840004D12B6F43F004032B67D0E72A6F22F0C0
:100F940001022A672A6F22F004022A67002BCAD1B1
:100FA400FFF72AFD41F2883806462B6F9807CBD508
:100FB400FFF722FD801B4045F7D915E7FFF71CFD1D
:100FC400401B4045BDD90FE70038024000004742AE
:100FD40000700040364DAB6803F00C03082B3DD085
:100FE400344B002202281A662BD1FFF705FD064672
:100FF4002B6899011FD4D4E907321343626A43EA88
:101004008213E26A43EA0263A26A5208013A43EA9B
:1010140002436B60274B264D01221A66FFF7ECFC56
:1010240004462B689A013FF5B1AEFFF7E5FC001BBF
:101034000228F6D9D8E6FFF7DFFC801B0228D7D9AF
:10104400D2E6FFF7D9FC04462B689B017FF59EAEE0
:10105400FFF7D2FC001B0228F6D9C5E601283FF4AD
:10106400C4AE6B68E26903F4800191427FF4A5AEDB
:10107400216A03F03F028A427FF49FAE616A47F619
:10108400C0721A40B2EB811F7FF497AEA26A520875
:1010940003F44031013AB1EB024F7FF48EAEE26AC1
:1010A40003F07063B3EB026F3FF470AE85E600BFEC
:1010B4000038024000004742134908B58B6803F02A
:1010C4000C03042B1CD0082B1CD14A684B684968BC
:1010D40013F4800314BF0D480D48C1F3881118BFE1
:1010E400002302F03F02A1FB0001FFF779F8064B51
:1010F4005B68C3F3014301335B00B0FBF3F008BD4D
:101104000248FCE70248FAE70038024000127A007D
:101114000024F4002DE9F0410D46044610B90120E5
:10112400BDE8F081434B1A6802F007028A4228D3D3
:1011340021688F072DD4C80740D43E4B1A6802F0AB
:101144000702AA4265D8226851076BD4130707D552
:10115400394A2169936823F4604343EAC1039360E5
:10116400FFF7AAFF344B354A9B68C3F30313D35CE0
:10117400D840334B1860334B1868FFF7F3FB00205B
:10118400CEE7CAB21A701B6803F007038B42C6D1BC
:10119400CEE7294B11F0040F1EBF9A6842F4E052C7
:1011A4009A600E0742BF9A6842F460429A609A6855
:1011B400A06822F0F00202439A60BCE762681E4B0A
:1011C400012A1CD11B6813F4003FA8D01A4EB3683F
:1011D40023F003031343B360FFF70EFC41F2883896
:1011E4000746B368626803F00C03B3EB820FA4D024
:1011F400FFF702FCC01B4045F3D9032090E7911E82
:1012040001291B6802D813F0007FDEE713F0020FF8
:10121400DBE7EAB21A701B6803F00703AB427FF402
:101224007EAF90E70449E0688B6823F4E0530343FE
:101234008B608BE7003C0240003802408B1C0008A6
:101244000000002008000020044B054A9B68C3F3FB
:101254008223D35C034A1068D840704700380240A8
:101264009B1C000800000020044B054A9B68C3F344
:101274004233D35C034A1068D840704700380240B8
:101284009B1C00080000002090F83D30012B28D161
:10129400022380F83D300368DA6842F00102DA6024
:1012A400114A934212D0B3F1804F0FD0A2F57C4281
:1012B40093420BD002F58062934207D002F580621C
:1012C400934203D002F59A32934204D19A6802F011
:1012D4000702062A03D01A6842F001021A600020AD
:1012E40070470120704700BF0000014070477047FD
:1012F4007047704703681A69910710B504460ED504
:10130400DA6892070BD56FF002021A6101220277A4
:101314009B699B0777D0FFF7EAFF002323772368B5
:101324001A69500710D5DA6851070DD56FF0040219
:101334001A61022222779B6913F4407F204668D009
:10134400FFF7D5FF0023237723681A6912070FD507
:10135400DA6810070CD56FF008021A6104222277AC
:10136400DB69990720465AD0FFF7C1FF0023237792
:1013740023681A69D20610D5DA68D0060DD56FF045
:1013840010021A6108222277DB6913F4407F204699
:101394004BD0FFF7ACFF0023237723681A69D107EA
:1013A40008D5DA68D20705D56FF001021A61204624
:1013B400FFF7FAF823681A69100608D5DA681106E7
:1013C40005D56FF080021A61204600F0B0F823685A
:1013D4001A69520608D5DA68500605D56FF040023E
:1013E4001A612046FFF785FF23681A69910622D502
:1013F400DA6892061FD56FF0200220461A61BDE814
:10140400104000F093B8FFF771FF2046FFF770FF1C
:1014140083E7FFF76BFF2046FFF76AFF92E7FFF7CA
:1014240065FF2046FFF764FFA0E7FFF75FFF204654
:10143400FFF75EFFAFE710BD244A036890420ED069
:10144400B0F1804F0BD0A2F57C42904207D002F558
:101454008062904203D002F58062904215D14A68BE
:1014640023F070031343194A904219D0B0F1804F0E
:1014740016D0A2F57C42904212D002F580629042CE
:101484000ED002F5806290420AD0114A904207D0F1
:1014940002F58062904203D002F58062904203D14B
:1014A400CA6823F4407313434A6923F08003134347
:1014B40003608B68C3620B688362044B984204BF69
:1014C4000B69036301234361704700BF00000140BF
:1014D4000040014010B5044630B390F83D3003F0AD
:1014E400FF021BB980F83C20FFF7B2F90223206801
:1014F40084F83D30211DFFF79FFF012384F8463017
:10150400002084F83E3084F83F3084F8403084F87A
:10151400413084F8423084F8433084F8443084F80D
:10152400453084F83D3010BD0120FCE7704770471A
:10153400026802F10C0353E8003F23F490730C3269
:1015440042E8003102680029F2D102F1140353E8A1
:10155400003F23F0010302F1140C4CE80031002990
:10156400F3D1036B012B0BD102F10C0353E8003FC1
:1015740023F0100302F10C0C4CE800310029F3D1E4
:10158400202380F83E300023036370470268C1685B
:10159400136923F440530B4370B513610546836804
:1015A4000069D168034368690343E86921F416417B
:1015B40021F00C0103430B43D3605369A96923F45D
:1015C40040730B4353611F4B9A4203D003F580636E
:1015D4009A4223D1FFF748FEEB691921B3F5004F76
:1015E400D5E90046A0FB01011BD1B2194FF000035D
:1015F4005B41FEF7F5FD6422B0FBF2F102FB11033F
:10160400DB003233B3FBF2F303F007025B0002EBBF
:10161400011203F4F8731344A36070BDFFF714FEC2
:10162400DAE7B200B30FFEF7DBFD6422B0FBF2F1A0
:1016340002FB11031B013233B3FBF2F303EB01137F
:10164400EAE700BF00100140F8B504460E4617460D
:101654001D462268136836EA030301D1002028E0FE
:101664006B1CF7D025B1FFF7C7F9C01B8542F0D238
:10167400226802F10C0353E8003F23F4D0730C32C8
:1016840042E8003021680028F2D101F1140353E844
:10169400003F23F0010301F1140040E80032002A66
:1016A400F3D1202384F83D3084F83C2084F83E3084
:1016B4000320F8BD10B5044640B390F83D3003F064
:1016C400FF021BB980F83C20FFF718F92268242395
:1016D40084F83D30D36823F40053D3602046FFF7E9
:1016E40055FF23681A6922F490421A615A6922F05C
:1016F4002A025A61DA6842F40052DA600020202398
:10170400206484F83D3084F83E3010BD0120FCE7AD
:10171400F7B5174690F83D200093202A04460E465C
:1017240049D1002945D0002F43D090F83C20012A0C
:1017340041D0012280F83C2000252122056480F854
:101744003D20FFF759F9A168009BA784B1F5805F9C
:101754000246E78403D1216909B935460E460021C2
:1017640084F83C10E18C89B241B940212046FFF74E
:101774006BFF60B9202384F83D3009E080212046C6
:10178400CDE90023FFF760FFDDE9002310B103205A
:1017940003B0F0BD20684EB935F8021BC1F308014F
:1017A4004160E18C013989B2E184DBE716F8011B61
:1017B400F6E70120ECE70220EAE77047704770473C
:1017C40008B5806B0023C385C384FFF7F8FF08BD09
:1017D400704790F83E30222B07B541D18168836A67
:1017E4000268B1F5805F3ED1016900293ED152689B
:1017F400C2F3080223F8022B8362C38D013B9BB220
:10180400C385002B2CD10268D16821F02001D1605E
:10181400D16821F48071D160516921F001015161D5
:10182400202280F83E20026B012A026828D103633B
:1018340002F10C0353E8003F23F0100302F10C0CF7
:101844004CE800310029F3D11368DB0605D501917A
:101854001368019353680193019B818DFFF7B8FFCF
:1018640003B05DF804FB39B9016929B95268D2B2F1
:101874001A70836A0133BFE7526802F07F02F7E708
:10188400FFF79CFFECE7000003681A6873B51607BE
:10189400D9685D69044608D1960668D58D0666D573
:1018A40002B0BDE87040FFF794BF05F0010001F4F9
:1018B400907505435BD0D60705D5CD0542BF236C93
:1018C40043F001032364530704D518B1236C43F098
:1018D40002032364960704D518B1236C43F0040370
:1018E4002364150707D501F0200303431EBF236CAF
:1018F40043F008032364236C002B32D0920604D5F2
:101904008B0602D52046FFF764FF26687369226CB4
:1019140003F0400302F0080253EA0205204622D0F5
:10192400FFF706FE73695E0618D5226802F11403F8
:1019340053E8003F23F04003143242E80031002909
:10194400F3D1A06B50B1724B0365FFF714F940B1AA
:10195400A06B036D02B0BDE8704018472046FFF746
:101964002EFF02B070BDFFF72AFF2564F9E7206B54
:10197400012840F09180D50640F18E80C80640F1E0
:101984008B80002201921A6801925A680192019A8E
:101994005A6952064CD5A16B0A68526892B2002A61
:1019A400DFD0A08D9042DCD9E285CA69B2F5807F90
:1019B40036D003F10C0252E8002F22F4807203F1B6
:1019C4000C0040E800210029F3D103F1140252E88D
:1019D400002F22F0010203F1140040E80021002945
:1019E400F3D103F1140252E8002F22F0400203F174
:1019F400140040E800210029F3D1202284F83E207D
:101A0400216303F10C0252E8002F22F0100203F1CB
:101A14000C0040E800210029F3D1A06BFFF76CF81B
:101A2400E38DA18DC91A89B22046FFF7D1FE98E74C
:101A3400E28DE08DA18D80B292B2002891D0891AF6
:101A440089B200298DD003F10C0252E8002F22F450
:101A5400907203F10C0545E800200028F3D103F14E
:101A6400140252E8002F22F0010203F1140545E8A4
:101A740000200028F3D1202284F83E20206303F1C3
:101A84000C0252E8002F22F0100203F10C0545E885
:101A940000200028F3D1C7E7160628D50D0626D561
:101AA40094F83D20212A7FF45CAFA168226AB1F545
:101AB400805F17D12169A9B932F8021BC1F308016B
:101AC40059602262E28C013A92B2E284002A7FF4E5
:101AD40048AFDA6822F08002DA60DA6842F0400245
:101AE400DA603EE7511C216212785A60EAE7500638
:101AF4007FF537AF4A067FF534AFDA6822F040024B
:101B0400DA60202384F83D302046FFF756FE28E7AC
:101B1400C5170008DFF834D0002103E00C4B5B58F4
:101B2400435004310B480C4B42189A42F6D30B4AEB
:101B340002E0002342F8043B094B9A42F9D3FEF732
:101B44002DFE00F019F8FEF78BFD70470080012090
:101B5400B41C0008000000200C0000200C00002031
:101B640000050020FEE702440346934200D170477B
:101B740003F8011BF9E7000070B50D4D0D4C641B13
:101B8400A4100026A64209D10B4D0C4C00F020F8FD
:101B9400641BA4100026A64205D170BD55F8043B71
:101BA40098470136EEE755F8043B98470136F2E7CB
:101BB400AC1C0008AC1C0008AC1C0008B01C0008DD
:101BC400034611F8012B03F8012B002AF9D17047C1
:101BD400F8B500BFF8BC08BC9E467047F8B500BF16
:081BE400F8BC08BC9E467047E6
:101BEC000964656275673A204231207072657373BF
:101BFC0065640D0A001B5B324A1B5B480A0A426F84
:101C0C006E6A6F7572206D61EE747265210A2863BD
:101C1C00294A65616E39322C2078782D7365702DC8
:101C2C00323032330A2A2A2A204634303152455F68
:101C3C00202A2A2A2056312E340A436F6D70696C83
:101C4C003A2032333A34333A3330206C65205365C2
:101C5C007020313920323032330A53546D6963723B
:101C6C006F204E55434C454F5F4634303152450D35
:101C7C000A000966696E20696E6974730D0A0000AA
:101C8C000000000000000001020304060708090020
:081C9C00000000010203040036
:081CA40070E5FF7F0100000064
:041CAC00B901000872
:041CB0009501000892
:0C1CB4000024F4000100000010000000FB
:0400000508001B19BB
:00000001FF
