:020000040800F2
:1000000000800120B51900087D0700087F0700085F
:10001000810700088307000885070008000000002A
:10002000000000000000000000000000870700083A
:1000300089070008000000008B0700088D070008F2
:10004000051A0008051A0008051A0008051A000814
:10005000051A0008051A0008051A0008051A000804
:10006000051A0008051A0008051A0008051A0008F4
:10007000051A0008051A0008051A0008051A0008E4
:10008000051A0008051A0008051A000800000000FB
:10009000000000000000000000000000051A000839
:1000A000051A0008910700089D070008051A0008B6
:1000B000051A0008051A0008051A0008051A0008A4
:1000C000051A0008051A0008051A0008051A000894
:1000D000051A0008051A0008A9070008000000001A
:1000E000B5070008051A0008051A000800000000FE
:1000F000000000000000000000000000051A0008D9
:1001000000000000051A0008051A0008051A00087A
:1001100000000000000000000000000000000000DF
:10012000051A0008051A0008051A0008051A000833
:10013000051A000800000000000000000000000098
:10014000000000000000000000000000051A000888
:10015000051A0008051A0008051A0008051A000803
:10016000051A0008051A0008000000000000000041
:10017000000000000000000000000000000000007F
:1001800000000000051A0008000000000000000048
:04019000051A000844
:1001940010B5054C237833B9044B13B10448AFF3BD
:1001A40000800123237010BD0C000020000000001B
:1001B400701A000808B5034B1BB103490348AFF399
:1001C400008008BD0000000010000020701A000824
:1001D400034613F8012B002AFBD1181A0138704783
:1001E40053B94AB9002908BF00281CBF4FF0FF319A
:1001F4004FF0FF3000F07AB9ADF1080C6DE904CE90
:1002040000F006F8DDF804E0DDE9022304B07047ED
:100214002DE9F0478C460D460446089E002B51D12B
:100224008A4217466DD9B2FA82FEBEF1000F0BD096
:10023400CEF1200C01FA0EF520FA0CFC02FA0EF7AE
:100244004CEA050C00FA0EF44FEA174A250CBCFBE5
:10025400FAF81FFA87F90AFB18CC45EA0C4508FBA3
:1002640009F3AB420AD9ED1908F1FF3280F023817A
:10027400AB4240F22081A8F102083D44ED1AA4B239
:10028400B5FBFAF00AFB105544EA054400FB09F9F2
:10029400A14509D9E41900F1FF3380F00A81A14591
:1002A40040F2078102383C44A4EB090440EA0840C8
:1002B4000021002E61D024FA0EF400233460736010
:1002C400BDE8F0878B4207D9002E54D0002186E880
:1002D40021000846BDE8F087B3FA83F1002940F015
:1002E4008E80AB4202D3824200F2FA80841A65EB1C
:1002F40003050120AC46002E3FD086E81010BDE86F
:10030400F08712B90127B7FBF2F7B7FA87FEBEF1FF
:10031400000F34D1EB1B3A0C1FFA87FC0121B3FB0D
:10032400F2F8250C02FB183345EA03450CFB08F3ED
:10033400AB4207D9ED1908F1FF3002D2AB4200F20B
:10034400D1808046ED1AA3B2B5FBF2F002FB105542
:1003540043EA05440CFB00FCA44507D9E41900F169
:10036400FF3302D2A44500F2B8801846A4EB0C0473
:1003740040EA08409DE731463046BDE8F087CEF1BB
:10038400200405FA0EF307FA0EF720FA04F83A0CE3
:1003940025FA04F448EA0308B4FBF2F14FEA1845DD
:1003A40002FB11441FFA87FC45EA044501FB0CF3E8
:1003B400AB4200FA0EF409D9ED1901F1FF3080F0D7
:1003C4008A80AB4240F2878002393D44EB1A1FFA1F
:1003D40088F5B3FBF2F002FB103345EA034500FB5A
:1003E4000CF3AB4207D9ED1900F1FF386FD2AB42E1
:1003F4006DD902383D44EB1A40EA01418FE7C1F15F
:10040400200722FA07F88B4005FA01F448EA0303AF
:1004140020FA07FE4FEA134CFD404EEA040EB5FBEA
:10042400FCF94FEA1E440CFB19551FFA83F844EA01
:10043400054509FB08F4AC4202FA01F200FA01FA9C
:1004440008D9ED1809F1FF3043D2AC4241D9A9F1E2
:1004540002091D442D1B1FFA8EFEB5FBFCF00CFB9C
:1004640010554EEA054400FB08F8A04507D9E418E6
:1004740000F1FF3529D2A04527D902381C4440EAAF
:100484000940A4EB0804A0FB02894C45C6464D462E
:1004940015D312D056B1BAEB0E0364EB050404FA7B
:1004A40007F7CB401F43CC40376074600021BDE8A0
:1004B400F0871846F8E69046E0E6C245EAD2B8EB83
:1004C400020E69EB03050138E4E72846D7E7404606
:1004D40091E78146BEE7014678E702383C4445E7A8
:1004E400084608E7A8F102083D442BE7704700BF1F
:1004F40030B589B01422002103A801F0A7FA002422
:100504001D4B00941A6B1D4D42F004021A631A6BC2
:1005140002F004020092009A01941A6B42F0010264
:100524001A631A6B02F001020192019A02941A6B87
:1005340042F002021A631B6B03F002032246029389
:1005440028462021029B00F0CDFB4FF40053039377
:1005540003A90B4B0B480493059400F0EDFA2023F8
:10056400039303A90123284604930594069400F0F9
:10057400E3FA09B030BD00BF003802400000024079
:100584000000211000080240B0F5005F10B50FD143
:100594000849094801F062FA0748FFF719FE41F2D9
:1005A400883382B204490548BDE8104001F0BAB866
:1005B40010BD00BF881A000830040020B0080020D5
:1005C4000268044B9A4203D12021034800F08FBBF8
:1005D400704700BF004401400000024010B594B0D1
:1005E4003022002108A801F031FA1422002103A8C6
:1005F40001F02CFA00221E4B0192196C41F080513B
:1006040019641B6C1B4903F080530193019B0292F4
:100614000B6823F4404343F400430B600B680F92D0
:1006240003F440430293029B01230B9310230C9386
:1006340010934FF4A873119304230224129308A86F
:10064400072308940E94139300F064FB00B1FEE7B3
:100654000F23039305904FF480530790214603A87A
:100664000494069300F006FD00B1FEE714B010BD3B
:10067400003802400070004038B500F0A1F9FFF7DF
:10068400ADFFFFF735FF00F027F900F0BBF800F0ED
:10069400D3F800221146262000F0E4F9262000F0C9
:1006A40015FA00221146282000F0DCF9282000F079
:1006B4000DFA1A491A481B4D01F0D0F91848FFF7F2
:1006C40087FD41F2883382B21549174801F02AF8B0
:1006D400142401222021284600F004FB1E2000F0EF
:1006E4009BF900222021284600F0FCFA1E2000F08D
:1006F40093F9013CEDD10D4800F076FD0C49084812
:1007040001F0ACF90648FFF763FD41F2883382B289
:100714000349054801F006F8FEE700BF9D1A0008EA
:100724003004002000000240B008002030080020FF
:100734001A1B0008FEE7000007B50E4B00210091CC
:100744005A6C42F480425A645A6C02F48042009219
:10075400009A01911A6C42F080521A641B6C03F0E7
:10076400805301930720019B00F06AF903B05DF800
:1007740004FB00BF003802407047FEE7FEE7FEE7D7
:10078400FEE770477047704700F034B9014800F045
:100794003FBD00BF30080020014800F039BD00BF54
:1007A40070080020014801F05BB800BFB0080020C9
:1007B4004FF4005000F0A2BA0F49D1F8883043F446
:1007C4007003C1F888300D4B1A68002042F0010212
:1007D4001A6098601A6822F0847222F480321A60D7
:1007E400074A5A601A6822F480221A60D8604FF0CF
:1007F40000638B60704700BF00ED00E000380240EA
:10080400103000240A480B4908B541F2873380E8C8
:100814000A0041F63F7200238360C2600361836172
:1008240000F0E6FD18B1BDE80840FFF783BF08BD3E
:1008340030080020004401400A480B4908B5C7238A
:1008440080E80A0040F2CF7200238360C260036133
:10085400836100F0CDFD18B1BDE80840FFF76ABF21
:1008640008BD00BF700800200048014007B50368B8
:10087400164A934215D10022154B0092596C41F44B
:10088400003159645B6C03F4003300931920114662
:10089400009B00F0E7F8192000F018F903B05DF8A8
:1008A40004FB0C4A9342F9D10022094B0192596C82
:1008B40041F4802159645B6C03F4802301931A2072
:1008C4001146019B00F0CEF81A20E5E700440140F0
:1008D400003802400048014008B50B480B4B4FF468
:1008E400612E80E808400C2200238360C36003610A
:1008F40042618361C36100F0E7FE18B1BDE80840BE
:10090400FFF718BF08BD00BFB00800200044004036
:1009140010B5044688B01422002103A801F096F80B
:100924002268134B9A4220D103F5FA330021019136
:100934001A6C104842F400321A641A6C02F4003241
:100944000192019A02911A6B42F001021A631B6B25
:1009540003F001030293029B0C23039302230493E9
:1009640003A90723079300F0E7F808B010BD00BF00
:10097400004400400000024038B50E4A0E4B0546C4
:1009840018784FF47A73B3FBF0F31068B0FBF3F00C
:1009940000F0AAF8044658B90F2D09D80246294692
:1009A4004FF0FF3000F05EF8044B20461D6038BD68
:1009B400012038BD000000200400002008000020B1
:1009C40008B50B4B1A6842F400721A601A6842F4B4
:1009D40080621A601A6842F480721A60032000F080
:1009E4002FF80020FFF7C8FFFFF7A6FE002008BD80
:1009F400003C0240034A044B11681B780B4413600B
:100A0400704700BFF008002004000020014B186864
:100A1400704700BFF008002038B50446FFF7F6FF22
:100A2400631C1CBF054B1B78054618BFE418FFF771
:100A3400EDFF401B8442FAD838BD00BF04000020FB
:100A4400074AD36823F4E0631B041B0C43F0BF6321
:100A5400000243F4003300F4E0600343D3607047C2
:100A640000ED00E0174B30B5DC68C4F30224C4F198
:100A74000703251D042B28BF0423062D4FF0010571
:100A840005FA03F303F1FF338CBF033C0024194040
:100A9400A14005FA04F4013C2240002842EA010284
:100AA4004FEA0212ADBF00F1604000F00F00064BA8
:100AB40000F56140B5BFD2B2D2B21A5480F8002317
:100AC40030BD00BF00ED00E014ED00E0002808DBBD
:100AD4004209012300F01F0003FA00F0014B43F820
:100AE4002200704700E100E00138B0F1807F0AD2B3
:100AF400064B074A5860F02182F823100020072291
:100B040098601A6070470120704700BF10E000E051
:100B140000ED00E090F83530022B03D080234365CC
:100B2400012070470268052380F83530136823F0EC
:100B340001031360002070472DE9F04F85B00B6866
:100B4400DFF89C81644A01934FF001090023019C62
:100B540009FA03F707EA0406B74240F0AD804C688F
:100B640024F0100ABAF1020F16D14FEAD30C00EBAD
:100B74008C0C03F0070BDCF820504FEA8B0B4FF082
:100B84000F0E0EFA0BFE25EA0E0E0D6905FA0BF593
:100B940045EA0E05CCF820504FEA430C0325D0F863
:100BA40000B005FA0CF5ED4304F0030E0BEA050B57
:100BB4000EFA0CFE0AF1FF3A4EEA0B0EBAF1010FDF
:100BC4000095C0F800E015D8D0F808E005EA0E0E4C
:100BD400CD6805FA0CFA4AEA0E0EC0F808E0D0F81F
:100BE40004E02EEA0707C4F3001E0EFA03FE4EEAE1
:100BF40007074760C768009D3D408F6807FA0CF7F8
:100C04003D43C560E50057D54FF0000BCDF80CB05F
:100C1400D8F84470314D47F48047C8F84470D8F888
:100C2400447007F480470397039F23F0030707F1F9
:100C3400804707F59C3703F0030CD7F808A04FEA68
:100C44008C0C4FF00F0E0EFA0CFEA8422AEA0E0E80
:100C540039D005F58065A84237D005F58065A842EE
:100C640035D005F58065A84233D005F58065A842E6
:100C740014BF0725042505FA0CF545EA0E05BD60E9
:100C84001568F74314F4803F0CBF3D4035431560AD
:100C9400556814F4003F0CBF3D40354355609568DA
:100CA40014F4801F0CBF3D4035439560D568A40201
:100CB40054BF3D403543D5600133102B7FF447AF1B
:100CC40005B0BDE8F08F5D46D5E70125D3E70225E1
:100CD400D1E70325CFE700BF003C014000000240FC
:100CE400003802400AB1816170470904FBE7436997
:100CF40031EA030308BF09048161704708B5044B56
:100D04005969014202D05861FFF73EFC08BD00BF9B
:100D1400003C01402DE9F341044618B9012002B01A
:100D2400BDE8F0810368DD0710D42368980758D420
:100D340023681A0700F19A8023685B0700F1B880E2
:100D4400A269002A40F019810020E8E7A64B9A68BE
:100D540002F00C02042A07D09A6802F00C02082A56
:100D64000AD15B68590207D59F4B1B689A03DCD5EF
:100D74006368002BD9D1D1E763689B4DB3F5803FFD
:100D840011D12B6843F480332B60FFF73FFE964D5F
:100D940006462B689B03C8D4FFF738FE801B6428E3
:100DA400F7D90320BBE7B3F5A02F04D12B6843F494
:100DB40080232B60E5E72A6822F480322A602A68BF
:100DC40022F480222A60002BDFD1FFF71FFE0646A3
:100DD4002B689F03A9D5FFF719FE801B6428F7D958
:100DE400DFE7814B9A6812F00C0F07D09A6802F083
:100DF4000C02082A11D15B685E020ED47A4B1A6881
:100E0400950702D5E268012A88D11A68216922F07F
:100E1400F80242EAC1021A608AE7E268734BB2B18F
:100E240001221A60FFF7F2FD6F4D06462B68980702
:100E340007D52B68226923F0F80343EAC2032B6029
:100E440076E7FFF7E3FD801B0228EFD9A9E71A60D4
:100E5400FFF7DCFD644D06462B6899077FF568AF04
:100E6400FFF7D4FD801B0228F6D99AE76269604B2C
:100E74007AB101221A60FFF7C9FD5B4D06466B6F1C
:100E84009F073FF559AFFFF7C1FD801B0228F6D934
:100E940087E71A60FFF7BAFD534D06466B6F980754
:100EA4007FF54AAFFFF7B2FD801B0228F6D978E739
:100EB4004D4B1A6C12F0805228D101921A6C42F0F8
:100EC40080521A641B6C03F080530193019B01262A
:100ED400484D2B68D9051BD5A368434D012B27D159
:100EE4002B6F43F001032B67FFF790FD3E4D074640
:100EF40041F288382B6F9B0739D5002E3FF420AF81
:100F0400394A136C23F08053136419E70026DFE792
:100F14002B6843F480732B60FFF778FD07462B683A
:100F2400DA05D9D4FFF772FDC01B0228F7D938E7D8
:100F3400052B04D12B6F43F004032B67D0E72A6FF2
:100F440022F001022A672A6F22F004022A67002B8A
:100F5400CAD1FFF75BFD41F2883807462B6F98072B
:100F6400CBD5FFF753FDC01B4045F7D919E7FFF771
:100F74004DFDC01B4045BDD913E71B4DAB6803F0C5
:100F84000C03082B3FF4CAAE1B4E0023022A336025
:100F940034D1FFF73BFD07462B6899011ED4226A22
:100FA400E3691343626A43EA8213E26A43EA02632F
:100FB400A26A0D4C5208013A43EA02436B600123D2
:100FC4003360FFF723FD054623689A013FF5BCAE65
:100FD400FFF71CFD401B0228F6D9E2E6FFF716FDD9
:100FE400C01B0228D8D9DCE6003802400000474282
:100FF400800E47420070004060004742FFF706FD44
:1010040004462B689B017FF59FAEFFF7FFFC001B96
:101014000228F6D9C5E600BF134908B58B6803F06A
:101024000C03042B03D0082B03D0104808BD104830
:1010340008BD4A684B68496813F4800314BF0C4820
:101044000A48C1F3881118BF002302F03F02A1FB34
:101054000001FFF7C5F8044B5B68C3F30143013398
:101064005B00B0FBF3F008BD003802400024F4003C
:1010740000127A002DE9F0410D46044610B9012012
:10108400BDE8F081444B1A6802F00F028A4228D36B
:1010940021688F072DD4C80740D43F4B1A6802F04B
:1010A4000F02954266D3226851076CD4130707D503
:1010B4003A4A2169936823F4604343EAC103936085
:1010C400FFF7AAFF354B364A9B68C3F30313D35C7F
:1010D400D840344B18600020FFF74EFC0020BDE8D8
:1010E400F081CAB21A701B6803F00F039942C6D18B
:1010F400CEE72A4B11F0040F1EBF9A6842F4E05267
:101104009A600E0742BF9A6842F460429A609A68F5
:10111400A06822F0F00202439A60BCE762681F4BA9
:10112400012A1DD11B6813F4003FA8D01B4EB368DD
:1011340023F003031343B360FFF768FC41F28838DC
:101144000746B368626803F00C03B3EB820FA4D0C4
:10115400FFF75CFCC01B4045F3D90320BDE8F081D8
:10116400911E01291B6802D813F0007FDDE713F0FC
:10117400020FDAE7EAB21A701B6803F00F039D420C
:101184007FF47DAF8FE70549E0688B6823F4E05373
:1011940003438B608AE700BF003C024000380240F2
:1011A400271B000800000020044B054A9B68C3F37A
:1011B4008223D35C034A1068D84070470038024049
:1011C400371B000800000020044B054A9B68C3F34A
:1011D4004233D35C034A1068D84070470038024059
:1011E400371B0008000000200368DA6842F001029F
:1011F400DA609A6802F00702062A1EBF1A6842F0F3
:1012040001021A60002070477047704770477047AA
:1012140003681A69910710B504460ED5DA68920777
:101224000BD56FF002021A619B6901229B070277BA
:1012340077D0FFF7EAFF0023237723681A69500762
:1012440010D5DA6851070DD56FF004021A619B6955
:10125400022213F4407F2277204668D0FFF7D5FF9F
:101264000023237723681A6912070FD5DA68100759
:101274000CD56FF008021A61DB6904229907227702
:1012840020465AD0FFF7C1FF0023237723681A6949
:10129400D20610D5DA68D0060DD56FF010021A61A7
:1012A400DB69082213F4407F227720464BD0FFF7F6
:1012B400ACFF0023237723681A69D10708D5DA68BD
:1012C400D20705D56FF001021A612046FFF778F9BD
:1012D40023681A69100608D5DA68110605D56FF077
:1012E40080021A61204600F09EF823681A695206AB
:1012F40008D5DA68500605D56FF040021A61204619
:10130400FFF785FF23681A69910622D5DA689206E9
:101314001FD56FF0200220461A61BDE8104000F08E
:1013240081B8FFF771FF2046FFF770FF83E7FFF7EF
:101334006BFF2046FFF76AFF92E7FFF765FF204641
:10134400FFF764FFA0E7FFF75FFF2046FFF75EFFAC
:10135400AFE710BD244A036890420ED0B0F1804F2D
:101364000BD0A2F57C42904207D002F580629042F5
:1013740003D002F58062904215D14A6823F07003CD
:101384001343194A904219D0B0F1804F16D0A2F5F8
:101394007C42904212D002F5806290420ED002F557
:1013A400806290420AD0114A904207D002F58062CE
:1013B400904203D002F58062904203D1CA6823F4BC
:1013C400407313434A6923F08003134303608B681B
:1013D400C3620B688362044B984204BF0B690363C6
:1013E40001234361704700BF0000014000400140F9
:1013F40010B50446A0B190F83D3003F0FF021BB9CC
:1014040080F83C20FFF732FA022384F83D3020684C
:10141400211DFFF79FFF012384F83D30002010BDFC
:10142400012010BD704770470368DA6822F4907297
:10143400DA605A6922F001025A61202380F83A30B6
:10144400704700002DE9F0470668C2683369C16936
:1014540023F4405313433361044683680069F268FC
:101464000343606922F41642034322F00C020B4347
:101474001343F3607369A26923F440731343B1F512
:10148400004F73617A4B7CD19E4203D003F5806395
:101494009E4244D1FFF798FE192505FB00F36068CE
:1014A4004FF064094000B3FBF0F3B3FBF9F34FEAE8
:1014B4000318FFF789FE636868435B00B0FBF3F72A
:1014C400FFF782FE636868435B00B0FBF3F3B3FB92
:1014D400F9F309FB1373DB003233B3FBF9F35B005D
:1014E40003F4F877FFF770FE626868435200B0FBBC
:1014F400F2FAFFF769FE636868435B00B0FBF3F33D
:10150400B3FBF9F309FB13A3DB003233B3FBF9F3A9
:1015140003F0070343443B44B360BDE8F087FFF79F
:1015240043FE192505FB00F360684FF06409400091
:10153400B3FBF0F3B3FBF9F34FEA0318FFF734FE00
:10154400636868435B00B0FBF3F7FFF72DFE636845
:1015540068435B00B0FBF3F3B3FBF9F309FB1373CC
:10156400DB003233B3FBF9F35B0003F4F877FFF7E6
:101574001BFE626868435200B0FBF2FAFFF714FEE8
:10158400B9E79E4202D03B4B9E4240D1FFF71CFE7E
:10159400676819254FF0640905FB00F3BF00B3FB2E
:1015A400F7F3B3FBF9F31F01FFF70EFE636868431B
:1015B4009B00B0FBF3F8FFF707FE636868439B00EA
:1015C400B0FBF3F3B3FBF9F309FB13831B013233D1
:1015D400B3FBF9F303F0F008FFF7F6FD6268684324
:1015E4009200B0FBF2FAFFF7EFFD636868439B00DB
:1015F400B0FBF3F3B3FBF9F309FB13A31B01323381
:10160400B3FBF9F303F00F0343EA080383E7FFF79F
:10161400CBFD676819254FF0640905FB00F3BF0093
:10162400B3FBF7F3B3FBF9F31F01FFF7BDFD6368E9
:1016340068439B00B0FBF3F8FFF7B6FD63686843AB
:101644009B00B0FBF3F3B3FBF9F309FB13831B011A
:101654003233B3FBF9F303F0F008FFF7A5FD62683A
:1016640068439200B0FBF2FAFFF79EFDBDE700BFAE
:101674000010014000140140F8B504460E46174618
:101684001D4621680B6836EA030301D10020F8BD2A
:101694006B1CF7D095B92368DA6822F4D072DA604B
:1016A4005A6922F001025A61202384F8393084F8FF
:1016B4003A30002384F838300320F8BDFFF7A6F948
:1016C400C01B8542DDD2E6E710B5044640B390F86E
:1016D400393003F0FF021BB980F83820FFF718F9FE
:1016E4002268242384F83930D36823F40053D36068
:1016F4002046FFF7A7FE23681A6922F490421A6174
:101704005A6922F02A025A61DA6842F40052DA6015
:1017140000202023E06384F8393084F83A3010BD87
:10172400012010BD2DE9F0411F4690F83930202BDF
:1017340004460D4690464FD100294AD0002A48D08D
:1017440090F83830012B47D0012380F8383000233B
:10175400C363212380F83930FFF758F9A4F82480B3
:101764000646A4F82680E38C9BB26BB93B4632460E
:1017740040212046FFF780FFB0B9202384F8393098
:1017840084F83800BDE8F081E38C013B9BB2E3842C
:10179400A368B3F5805F32463B464FF08001204694
:1017A4000ED1FFF769FF10B10320BDE8F0812B884B
:1017B4002268C3F308035360236943B90235D2E7AF
:1017C400FFF75AFF0028EFD123682A785A600135C1
:1017D400C9E70120BDE8F0810220BDE8F08170472F
:1017E400704790F83A30222B10B536D183680169DE
:1017F4000268B3F5805F836A23D15268E9B9C2F302
:10180400080223F8022B8362C48D013CA4B2C48570
:101814008CB90368DA6822F02002DA60DA6822F40C
:101824008072DA605A6922F001025A61202380F83A
:101834003A30FFF7D5FF002010BDD2B223F8012BB8
:10184400E1E721B9591C526881621A70DCE75268D9
:10185400591C816202F07F02F7E7022010BD704735
:1018640003681A68D96870B5160704465D6907D11C
:1018740096065AD58D0658D5BDE87040FFF7B1BF1E
:1018840015F0010502D111F4907F4ED0D30705D590
:10189400CE0542BFE36B43F00103E363500704D575
:1018A4001DB1E36B43F00203E363930704D51DB159
:1018B400E36B43F00403E363160704D51DB1E36B44
:1018C40043F00803E363E36B002B66D0950604D56D
:1018D400880602D52046FFF784FF23685D69E26B22
:1018E4001107204602D415F040051AD0FFF79CFDDD
:1018F40023685A69520610D55A69606B22F0400277
:101904005A6150B1254B0365FFF704F9002844D010
:10191400606BBDE87040036D18472046FFF79FFFDA
:1019240070BDFFF79CFFE56370BD160627D50D0655
:1019340025D594F83920212A2FD1A268B2F5805FE9
:10194400226A17D11188C1F308015960216979B954
:1019540002322262E28C013A92B2E284EAB9DA6893
:1019640022F08002DA60DA6842F04002DA6070BD88
:101974000132EEE7511C216212785A60EAE7500600
:101984000BD54A0609D5DA6822F04002DA60202332
:1019940084F839302046FFF722FF70BDA5190008EE
:1019A40008B5806B0023C385C384FFF758FF08BDC7
:1019B400DFF834D0002103E00C4B5B584350043172
:1019C4000B480C4B42189A42F6D30B4A02E0002310
:1019D40042F8043B094B9A42F9D3FEF7EDFE00F0BE
:1019E40011F8FEF749FE704700800120501B0008E3
:1019F400000000200C0000200C000020F40800204F
:101A0400FEE7000070B50D4E0D4CA41BA41000257C
:101A1400A54209D10B4E0C4C00F028F8A41BA410CD
:101A24000025A54205D170BD56F8253098470135EB
:101A3400EEE756F8253098470135F2E7481B0008D1
:101A4400481B0008481B00084C1B000802440346BE
:101A5400934200D1704703F8011BF9E7034611F8DC
:101A6400012B03F8012B002AF9D17047F8B500BF08
:101A7400F8BC08BC9E467047F8B500BFF8BC08BC6B
:041A84009E467047C3
:101A88000964656275673A20423120707265737324
:101A980065640D0A001B5B324A1B5B480A0A426FE9
:101AA8006E6A6F7572206D61EE747265210A286323
:101AB800294A65616E39322C2078782D6D61792D2F
:101AC800323032300A2A2A2A204634303152455FD1
:101AD800202A2A2A2056312E320A436F6D70696CEB
:101AE8003A2031383A32393A3336206C65204D6124
:101AF8007920313320323032300A53546D696372A1
:101B08006F204E55434C454F5F4634303152450D9A
:101B18000A000966696E20696E6974730D0A00000F
:101B28000000000000000001020304060708090085
:081B380000000001020304009B
:081B4000D4E6FF7F0100000064
:041B4800B9010008D7
:041B4C0095010008F7
:0C1B50000024F400010000001000000060
:04000005080019B521
:00000001FF
